{
  "contractName": "AstterLive",
  "abi": [
    {
      "anonymous": false,
      "inputs": [
        {
          "indexed": true,
          "internalType": "address",
          "name": "user",
          "type": "address"
        },
        {
          "indexed": true,
          "internalType": "string",
          "name": "streamName",
          "type": "string"
        }
      ],
      "name": "StreamCreated",
      "type": "event"
    },
    {
      "inputs": [
        {
          "internalType": "address",
          "name": "user",
          "type": "address"
        }
      ],
      "name": "hasStream",
      "outputs": [
        {
          "internalType": "bool",
          "name": "",
          "type": "bool"
        }
      ],
      "stateMutability": "view",
      "type": "function"
    },
    {
      "inputs": [
        {
          "internalType": "string[]",
          "name": "streamData",
          "type": "string[]"
        },
        {
          "internalType": "string[][]",
          "name": "profiles",
          "type": "string[][]"
        }
      ],
      "name": "createStream",
      "outputs": [],
      "stateMutability": "nonpayable",
      "type": "function"
    },
    {
      "inputs": [
        {
          "internalType": "string",
          "name": "streamId",
          "type": "string"
        }
      ],
      "name": "getStreamer",
      "outputs": [
        {
          "internalType": "address",
          "name": "",
          "type": "address"
        }
      ],
      "stateMutability": "view",
      "type": "function"
    },
    {
      "inputs": [],
      "name": "getStreamforUser",
      "outputs": [
        {
          "components": [
            {
              "internalType": "string",
              "name": "streamName",
              "type": "string"
            },
            {
              "internalType": "string",
              "name": "streamId",
              "type": "string"
            }
          ],
          "internalType": "struct AstterLive.Stream",
          "name": "",
          "type": "tuple"
        }
      ],
      "stateMutability": "view",
      "type": "function"
    },
    {
      "inputs": [],
      "name": "getProfilesforUser",
      "outputs": [
        {
          "components": [
            {
              "internalType": "string",
              "name": "name",
              "type": "string"
            },
            {
              "internalType": "string",
              "name": "bitrate",
              "type": "string"
            },
            {
              "internalType": "string",
              "name": "fps",
              "type": "string"
            },
            {
              "internalType": "string",
              "name": "width",
              "type": "string"
            },
            {
              "internalType": "string",
              "name": "height",
              "type": "string"
            }
          ],
          "internalType": "struct AstterLive.Profile[]",
          "name": "",
          "type": "tuple[]"
        }
      ],
      "stateMutability": "view",
      "type": "function"
    }
  ],
  "bytecode": "0x608060405234801561001057600080fd5b506116c4806100206000396000f3fe608060405234801561001057600080fd5b50600436106100575760003560e01c806345e1191d1461005c578063498ee9811461007a57806359dda57c14610098578063a58976b0146100c8578063cf0dc39b146100f8575b600080fd5b610064610114565b6040516100719190610d7a565b60405180910390f35b6100826102d7565b60405161008f9190610ef0565b60405180910390f35b6100b260048036038101906100ad9190610f84565b610695565b6040516100bf9190610fcc565b60405180910390f35b6100e260048036038101906100dd919061111c565b6106ea565b6040516100ef9190611174565b60405180910390f35b610112600480360381019061010d9190611356565b610732565b005b61011c610be0565b61012533610695565b610164576040517f08c379a000000000000000000000000000000000000000000000000000000000815260040161015b90611451565b60405180910390fd5b600160003373ffffffffffffffffffffffffffffffffffffffff1673ffffffffffffffffffffffffffffffffffffffff1681526020019081526020016000206040518060400160405290816000820180546101be906114a0565b80601f01602080910402602001604051908101604052809291908181526020018280546101ea906114a0565b80156102375780601f1061020c57610100808354040283529160200191610237565b820191906000526020600020905b81548152906001019060200180831161021a57829003601f168201915b50505050508152602001600182018054610250906114a0565b80601f016020809104026020016040519081016040528092919081815260200182805461027c906114a0565b80156102c95780601f1061029e576101008083540402835291602001916102c9565b820191906000526020600020905b8154815290600101906020018083116102ac57829003601f168201915b505050505081525050905090565b60606102e233610695565b610321576040517f08c379a000000000000000000000000000000000000000000000000000000000815260040161031890611451565b60405180910390fd5b600260003373ffffffffffffffffffffffffffffffffffffffff1673ffffffffffffffffffffffffffffffffffffffff168152602001908152602001600020805480602002602001604051908101604052809291908181526020016000905b8282101561068c57838290600052602060002090600502016040518060a00160405290816000820180546103b3906114a0565b80601f01602080910402602001604051908101604052809291908181526020018280546103df906114a0565b801561042c5780601f106104015761010080835404028352916020019161042c565b820191906000526020600020905b81548152906001019060200180831161040f57829003601f168201915b50505050508152602001600182018054610445906114a0565b80601f0160208091040260200160405190810160405280929190818152602001828054610471906114a0565b80156104be5780601f10610493576101008083540402835291602001916104be565b820191906000526020600020905b8154815290600101906020018083116104a157829003601f168201915b505050505081526020016002820180546104d7906114a0565b80601f0160208091040260200160405190810160405280929190818152602001828054610503906114a0565b80156105505780601f1061052557610100808354040283529160200191610550565b820191906000526020600020905b81548152906001019060200180831161053357829003601f168201915b50505050508152602001600382018054610569906114a0565b80601f0160208091040260200160405190810160405280929190818152602001828054610595906114a0565b80156105e25780601f106105b7576101008083540402835291602001916105e2565b820191906000526020600020905b8154815290600101906020018083116105c557829003601f168201915b505050505081526020016004820180546105fb906114a0565b80601f0160208091040260200160405190810160405280929190818152602001828054610627906114a0565b80156106745780601f1061064957610100808354040283529160200191610674565b820191906000526020600020905b81548152906001019060200180831161065757829003601f168201915b50505050508152505081526020019060010190610380565b50505050905090565b60008060008373ffffffffffffffffffffffffffffffffffffffff1673ffffffffffffffffffffffffffffffffffffffff16815260200190815260200160002060009054906101000a900460ff169050919050565b60006003826040516106fc919061150e565b908152602001604051809103902060009054906101000a900473ffffffffffffffffffffffffffffffffffffffff169050919050565b61073b33610695565b1561077b576040517f08c379a0000000000000000000000000000000000000000000000000000000008152600401610772906115bd565b60405180910390fd5b60405180604001604052808360008151811061079a576107996115dd565b5b60200260200101518152602001836001815181106107bb576107ba6115dd565b5b6020026020010151815250600160003373ffffffffffffffffffffffffffffffffffffffff1673ffffffffffffffffffffffffffffffffffffffff1681526020019081526020016000206000820151816000019080519060200190610821929190610bfa565b50602082015181600101908051906020019061083e929190610bfa565b5090505033600383600181518110610859576108586115dd565b5b602002602001015160405161086e919061150e565b908152602001604051809103902060006101000a81548173ffffffffffffffffffffffffffffffffffffffff021916908373ffffffffffffffffffffffffffffffffffffffff1602179055506000600260003373ffffffffffffffffffffffffffffffffffffffff1673ffffffffffffffffffffffffffffffffffffffff168152602001908152602001600020905060005b8251811015610b0f5760006040518060a00160405280858481518110610929576109286115dd565b5b6020026020010151600081518110610944576109436115dd565b5b60200260200101518152602001858481518110610964576109636115dd565b5b602002602001015160018151811061097f5761097e6115dd565b5b6020026020010151815260200185848151811061099f5761099e6115dd565b5b60200260200101516002815181106109ba576109b96115dd565b5b602002602001015181526020018584815181106109da576109d96115dd565b5b60200260200101516003815181106109f5576109f46115dd565b5b60200260200101518152602001858481518110610a1557610a146115dd565b5b6020026020010151600481518110610a3057610a2f6115dd565b5b60200260200101518152509050828190806001815401808255809150506001900390600052602060002090600502016000909190919091506000820151816000019080519060200190610a84929190610bfa565b506020820151816001019080519060200190610aa1929190610bfa565b506040820151816002019080519060200190610abe929190610bfa565b506060820151816003019080519060200190610adb929190610bfa565b506080820151816004019080519060200190610af8929190610bfa565b505050508080610b0790611645565b915050610900565b5060016000803373ffffffffffffffffffffffffffffffffffffffff1673ffffffffffffffffffffffffffffffffffffffff16815260200190815260200160002060006101000a81548160ff02191690831515021790555082600081518110610b7b57610b7a6115dd565b5b6020026020010151604051610b90919061150e565b60405180910390203373ffffffffffffffffffffffffffffffffffffffff167faad763e029490bc6f707c8985ebbddcc804136cdc9f2d51c64e39b12eea76d2160405160405180910390a3505050565b604051806040016040528060608152602001606081525090565b828054610c06906114a0565b90600052602060002090601f016020900481019282610c285760008555610c6f565b82601f10610c4157805160ff1916838001178555610c6f565b82800160010185558215610c6f579182015b82811115610c6e578251825591602001919060010190610c53565b5b509050610c7c9190610c80565b5090565b5b80821115610c99576000816000905550600101610c81565b5090565b600081519050919050565b600082825260208201905092915050565b60005b83811015610cd7578082015181840152602081019050610cbc565b83811115610ce6576000848401525b50505050565b6000601f19601f8301169050919050565b6000610d0882610c9d565b610d128185610ca8565b9350610d22818560208601610cb9565b610d2b81610cec565b840191505092915050565b60006040830160008301518482036000860152610d538282610cfd565b91505060208301518482036020860152610d6d8282610cfd565b9150508091505092915050565b60006020820190508181036000830152610d948184610d36565b905092915050565b600081519050919050565b600082825260208201905092915050565b6000819050602082019050919050565b600060a0830160008301518482036000860152610de58282610cfd565b91505060208301518482036020860152610dff8282610cfd565b91505060408301518482036040860152610e198282610cfd565b91505060608301518482036060860152610e338282610cfd565b91505060808301518482036080860152610e4d8282610cfd565b9150508091505092915050565b6000610e668383610dc8565b905092915050565b6000602082019050919050565b6000610e8682610d9c565b610e908185610da7565b935083602082028501610ea285610db8565b8060005b85811015610ede5784840389528151610ebf8582610e5a565b9450610eca83610e6e565b925060208a01995050600181019050610ea6565b50829750879550505050505092915050565b60006020820190508181036000830152610f0a8184610e7b565b905092915050565b6000604051905090565b600080fd5b600080fd5b600073ffffffffffffffffffffffffffffffffffffffff82169050919050565b6000610f5182610f26565b9050919050565b610f6181610f46565b8114610f6c57600080fd5b50565b600081359050610f7e81610f58565b92915050565b600060208284031215610f9a57610f99610f1c565b5b6000610fa884828501610f6f565b91505092915050565b60008115159050919050565b610fc681610fb1565b82525050565b6000602082019050610fe16000830184610fbd565b92915050565b600080fd5b600080fd5b7f4e487b7100000000000000000000000000000000000000000000000000000000600052604160045260246000fd5b61102982610cec565b810181811067ffffffffffffffff8211171561104857611047610ff1565b5b80604052505050565b600061105b610f12565b90506110678282611020565b919050565b600067ffffffffffffffff82111561108757611086610ff1565b5b61109082610cec565b9050602081019050919050565b82818337600083830152505050565b60006110bf6110ba8461106c565b611051565b9050828152602081018484840111156110db576110da610fec565b5b6110e684828561109d565b509392505050565b600082601f83011261110357611102610fe7565b5b81356111138482602086016110ac565b91505092915050565b60006020828403121561113257611131610f1c565b5b600082013567ffffffffffffffff8111156111505761114f610f21565b5b61115c848285016110ee565b91505092915050565b61116e81610f46565b82525050565b60006020820190506111896000830184611165565b92915050565b600067ffffffffffffffff8211156111aa576111a9610ff1565b5b602082029050602081019050919050565b600080fd5b60006111d36111ce8461118f565b611051565b905080838252602082019050602084028301858111156111f6576111f56111bb565b5b835b8181101561123d57803567ffffffffffffffff81111561121b5761121a610fe7565b5b80860161122889826110ee565b855260208501945050506020810190506111f8565b5050509392505050565b600082601f83011261125c5761125b610fe7565b5b813561126c8482602086016111c0565b91505092915050565b600067ffffffffffffffff8211156112905761128f610ff1565b5b602082029050602081019050919050565b60006112b46112af84611275565b611051565b905080838252602082019050602084028301858111156112d7576112d66111bb565b5b835b8181101561131e57803567ffffffffffffffff8111156112fc576112fb610fe7565b5b8086016113098982611247565b855260208501945050506020810190506112d9565b5050509392505050565b600082601f83011261133d5761133c610fe7565b5b813561134d8482602086016112a1565b91505092915050565b6000806040838503121561136d5761136c610f1c565b5b600083013567ffffffffffffffff81111561138b5761138a610f21565b5b61139785828601611247565b925050602083013567ffffffffffffffff8111156113b8576113b7610f21565b5b6113c485828601611328565b9150509250929050565b600082825260208201905092915050565b7f5573657220686173206e6f74207965742063726561746564206120737472656160008201527f6d00000000000000000000000000000000000000000000000000000000000000602082015250565b600061143b6021836113ce565b9150611446826113df565b604082019050919050565b6000602082019050818103600083015261146a8161142e565b9050919050565b7f4e487b7100000000000000000000000000000000000000000000000000000000600052602260045260246000fd5b600060028204905060018216806114b857607f821691505b602082108114156114cc576114cb611471565b5b50919050565b600081905092915050565b60006114e882610c9d565b6114f281856114d2565b9350611502818560208601610cb9565b80840191505092915050565b600061151a82846114dd565b915081905092915050565b7f557365722068617320616e206163746976652073747265616d2e20506c65617360008201527f652066657463682073747265616d496420616e6420637265617465206120736560208201527f7373696f6e000000000000000000000000000000000000000000000000000000604082015250565b60006115a76045836113ce565b91506115b282611525565b606082019050919050565b600060208201905081810360008301526115d68161159a565b9050919050565b7f4e487b7100000000000000000000000000000000000000000000000000000000600052603260045260246000fd5b7f4e487b7100000000000000000000000000000000000000000000000000000000600052601160045260246000fd5b6000819050919050565b60006116508261163b565b91507fffffffffffffffffffffffffffffffffffffffffffffffffffffffffffffffff8214156116835761168261160c565b5b60018201905091905056fea2646970667358221220fa11bd4d9014eb410aa11c660f568e2e610ae5dbb28003c0c51709d1e2420e2064736f6c634300080b0033",
  "immutableReferences": {},
  "source": "//SPDX-License-Identifier: MIT OR Apache-2.0\npragma solidity ^0.8.9;\ncontract AstterLive{\n\n    struct Profile{\n        string name;\n        string bitrate;\n        string fps;\n        string width;\n        string height;\n    }\n\n    struct Stream {\n        string streamName;\n        string streamId;\n    }\n\n    mapping(address => bool) streamCreated;\n    mapping(address => Stream) userStream;\n    mapping(address => Profile[]) userProfiles;\n    mapping(string => address) streamIdToUser;\n\n    address owner;\n\n    modifier onlyOwner {\n        require(msg.sender == owner, \"Only owner can access this function\");\n        _;\n    }\n\n    function hasStream(address user) public view returns(bool) {\n        return streamCreated[user];\n    }\n\n    event StreamCreated(address indexed user, string indexed streamName);\n\n    function createStream(string[] memory streamData, string[][] memory profiles) external{\n        require(!hasStream(msg.sender), \"User has an active stream. Please fetch streamId and create a session\");\n        userStream[msg.sender] = Stream(streamData[0], streamData[1]);\n        streamIdToUser[streamData[1]] = msg.sender;\n\n        Profile[] storage prof = userProfiles[msg.sender];\n        for(uint i = 0; i<profiles.length; i++) {\n            Profile memory p = Profile(profiles[i][0], profiles[i][1], profiles[i][2], profiles[i][3], profiles[i][4]);\n            prof.push(p);\n        }\n\n        streamCreated[msg.sender] = true;\n\n        emit StreamCreated(msg.sender, streamData[0]);\n    }\n\n    function getStreamer(string memory streamId) external view returns(address) {\n        return streamIdToUser[streamId];\n    }\n\n    function getStreamforUser() external view returns(Stream memory) {\n        require(hasStream(msg.sender), \"User has not yet created a stream\");\n        return userStream[msg.sender];\n    }\n\n    function getProfilesforUser() external view returns (Profile[] memory) {\n        require(hasStream(msg.sender), \"User has not yet created a stream\");\n        return userProfiles[msg.sender];\n    }\n\n}",
  "sourcePath": "D:\\github\\Astter-Live\\contracts\\AstterLive.sol",
  "compiler": {
    "name": "solc",
    "version": "0.8.11+commit.d7f03943.Emscripten.clang"
  },
  "schemaVersion": "3.4.4",
  "updatedAt": "2022-09-25T12:36:08.695Z",
  "devdoc": {
    "kind": "dev",
    "methods": {},
    "version": 1
  },
  "userdoc": {
    "kind": "user",
    "methods": {},
    "version": 1
  }
}