{
  "contractName": "AstterLive",
  "abi": [
    {
      "anonymous": false,
      "inputs": [
        {
          "indexed": true,
          "internalType": "address",
          "name": "user",
          "type": "address"
        },
        {
          "indexed": true,
          "internalType": "string",
          "name": "streamName",
          "type": "string"
        }
      ],
      "name": "StreamCreated",
      "type": "event"
    },
    {
      "inputs": [
        {
          "internalType": "address",
          "name": "user",
          "type": "address"
        }
      ],
      "name": "hasStream",
      "outputs": [
        {
          "internalType": "bool",
          "name": "",
          "type": "bool"
        }
      ],
      "stateMutability": "view",
      "type": "function"
    },
    {
      "inputs": [
        {
          "internalType": "string[]",
          "name": "streamData",
          "type": "string[]"
        },
        {
          "internalType": "uint256",
          "name": "category",
          "type": "uint256"
        },
        {
          "internalType": "string[][]",
          "name": "profiles",
          "type": "string[][]"
        }
      ],
      "name": "createStream",
      "outputs": [],
      "stateMutability": "nonpayable",
      "type": "function"
    },
    {
      "inputs": [
        {
          "internalType": "string",
          "name": "streamId",
          "type": "string"
        }
      ],
      "name": "getStreamer",
      "outputs": [
        {
          "internalType": "address",
          "name": "",
          "type": "address"
        }
      ],
      "stateMutability": "view",
      "type": "function"
    },
    {
      "inputs": [
        {
          "internalType": "string",
          "name": "streamId",
          "type": "string"
        }
      ],
      "name": "getStream",
      "outputs": [
        {
          "components": [
            {
              "internalType": "string",
              "name": "streamName",
              "type": "string"
            },
            {
              "internalType": "string",
              "name": "streamId",
              "type": "string"
            },
            {
              "internalType": "string",
              "name": "description",
              "type": "string"
            },
            {
              "internalType": "uint256",
              "name": "category",
              "type": "uint256"
            },
            {
              "internalType": "string",
              "name": "thumbnail",
              "type": "string"
            }
          ],
          "internalType": "struct AstterLive.Stream",
          "name": "",
          "type": "tuple"
        }
      ],
      "stateMutability": "view",
      "type": "function"
    },
    {
      "inputs": [],
      "name": "getStreamforUser",
      "outputs": [
        {
          "components": [
            {
              "internalType": "string",
              "name": "streamName",
              "type": "string"
            },
            {
              "internalType": "string",
              "name": "streamId",
              "type": "string"
            },
            {
              "internalType": "string",
              "name": "description",
              "type": "string"
            },
            {
              "internalType": "uint256",
              "name": "category",
              "type": "uint256"
            },
            {
              "internalType": "string",
              "name": "thumbnail",
              "type": "string"
            }
          ],
          "internalType": "struct AstterLive.Stream",
          "name": "",
          "type": "tuple"
        }
      ],
      "stateMutability": "view",
      "type": "function"
    },
    {
      "inputs": [],
      "name": "getProfilesforUser",
      "outputs": [
        {
          "components": [
            {
              "internalType": "string",
              "name": "name",
              "type": "string"
            },
            {
              "internalType": "string",
              "name": "bitrate",
              "type": "string"
            },
            {
              "internalType": "string",
              "name": "fps",
              "type": "string"
            },
            {
              "internalType": "string",
              "name": "width",
              "type": "string"
            },
            {
              "internalType": "string",
              "name": "height",
              "type": "string"
            }
          ],
          "internalType": "struct AstterLive.Profile[]",
          "name": "",
          "type": "tuple[]"
        }
      ],
      "stateMutability": "view",
      "type": "function"
    }
  ],
  "bytecode": "0x608060405234801561001057600080fd5b50611c17806100206000396000f3fe608060405234801561001057600080fd5b50600436106100625760003560e01c80632f396d821461006757806345e1191d14610083578063498ee981146100a157806359dda57c146100bf5780635e587d7a146100ef578063a58976b01461011f575b600080fd5b610081600480360381019061007c91906114b2565b61014f565b005b61008b61068a565b604051610098919061165f565b60405180910390f35b6100a961097b565b6040516100b691906117d5565b60405180910390f35b6100d960048036038101906100d49190611855565b610d39565b6040516100e6919061189d565b60405180910390f35b610109600480360381019061010491906118b8565b610d8e565b604051610116919061165f565b60405180910390f35b610139600480360381019061013491906118b8565b611041565b6040516101469190611910565b60405180910390f35b61015833610d39565b15610198576040517f08c379a000000000000000000000000000000000000000000000000000000000815260040161018f906119d4565b60405180910390fd5b6040518060a00160405280846000815181106101b7576101b66119f4565b5b60200260200101518152602001846001815181106101d8576101d76119f4565b5b60200260200101518152602001846002815181106101f9576101f86119f4565b5b60200260200101518152602001838152602001846003815181106102205761021f6119f4565b5b6020026020010151815250600160003373ffffffffffffffffffffffffffffffffffffffff1673ffffffffffffffffffffffffffffffffffffffff1681526020019081526020016000206000820151816000019080519060200190610286929190611089565b5060208201518160010190805190602001906102a3929190611089565b5060408201518160020190805190602001906102c0929190611089565b506060820151816003015560808201518160040190805190602001906102e7929190611089565b5090505033600384600181518110610302576103016119f4565b5b60200260200101516040516103179190611a5f565b908152602001604051809103902060006101000a81548173ffffffffffffffffffffffffffffffffffffffff021916908373ffffffffffffffffffffffffffffffffffffffff1602179055506000600260003373ffffffffffffffffffffffffffffffffffffffff1673ffffffffffffffffffffffffffffffffffffffff168152602001908152602001600020905060005b82518110156105b85760006040518060a001604052808584815181106103d2576103d16119f4565b5b60200260200101516000815181106103ed576103ec6119f4565b5b6020026020010151815260200185848151811061040d5761040c6119f4565b5b6020026020010151600181518110610428576104276119f4565b5b60200260200101518152602001858481518110610448576104476119f4565b5b6020026020010151600281518110610463576104626119f4565b5b60200260200101518152602001858481518110610483576104826119f4565b5b602002602001015160038151811061049e5761049d6119f4565b5b602002602001015181526020018584815181106104be576104bd6119f4565b5b60200260200101516004815181106104d9576104d86119f4565b5b6020026020010151815250905082819080600181540180825580915050600190039060005260206000209060050201600090919091909150600082015181600001908051906020019061052d929190611089565b50602082015181600101908051906020019061054a929190611089565b506040820151816002019080519060200190610567929190611089565b506060820151816003019080519060200190610584929190611089565b5060808201518160040190805190602001906105a1929190611089565b5050505080806105b090611aa5565b9150506103a9565b5060016000803373ffffffffffffffffffffffffffffffffffffffff1673ffffffffffffffffffffffffffffffffffffffff16815260200190815260200160002060006101000a81548160ff02191690831515021790555083600081518110610624576106236119f4565b5b60200260200101516040516106399190611a5f565b60405180910390203373ffffffffffffffffffffffffffffffffffffffff167faad763e029490bc6f707c8985ebbddcc804136cdc9f2d51c64e39b12eea76d2160405160405180910390a350505050565b61069261110f565b61069b33610d39565b6106da576040517f08c379a00000000000000000000000000000000000000000000000000000000081526004016106d190611b60565b60405180910390fd5b600160003373ffffffffffffffffffffffffffffffffffffffff1673ffffffffffffffffffffffffffffffffffffffff1681526020019081526020016000206040518060a001604052908160008201805461073490611baf565b80601f016020809104026020016040519081016040528092919081815260200182805461076090611baf565b80156107ad5780601f10610782576101008083540402835291602001916107ad565b820191906000526020600020905b81548152906001019060200180831161079057829003601f168201915b505050505081526020016001820180546107c690611baf565b80601f01602080910402602001604051908101604052809291908181526020018280546107f290611baf565b801561083f5780601f106108145761010080835404028352916020019161083f565b820191906000526020600020905b81548152906001019060200180831161082257829003601f168201915b5050505050815260200160028201805461085890611baf565b80601f016020809104026020016040519081016040528092919081815260200182805461088490611baf565b80156108d15780601f106108a6576101008083540402835291602001916108d1565b820191906000526020600020905b8154815290600101906020018083116108b457829003601f168201915b50505050508152602001600382015481526020016004820180546108f490611baf565b80601f016020809104026020016040519081016040528092919081815260200182805461092090611baf565b801561096d5780601f106109425761010080835404028352916020019161096d565b820191906000526020600020905b81548152906001019060200180831161095057829003601f168201915b505050505081525050905090565b606061098633610d39565b6109c5576040517f08c379a00000000000000000000000000000000000000000000000000000000081526004016109bc90611b60565b60405180910390fd5b600260003373ffffffffffffffffffffffffffffffffffffffff1673ffffffffffffffffffffffffffffffffffffffff168152602001908152602001600020805480602002602001604051908101604052809291908181526020016000905b82821015610d3057838290600052602060002090600502016040518060a0016040529081600082018054610a5790611baf565b80601f0160208091040260200160405190810160405280929190818152602001828054610a8390611baf565b8015610ad05780601f10610aa557610100808354040283529160200191610ad0565b820191906000526020600020905b815481529060010190602001808311610ab357829003601f168201915b50505050508152602001600182018054610ae990611baf565b80601f0160208091040260200160405190810160405280929190818152602001828054610b1590611baf565b8015610b625780601f10610b3757610100808354040283529160200191610b62565b820191906000526020600020905b815481529060010190602001808311610b4557829003601f168201915b50505050508152602001600282018054610b7b90611baf565b80601f0160208091040260200160405190810160405280929190818152602001828054610ba790611baf565b8015610bf45780601f10610bc957610100808354040283529160200191610bf4565b820191906000526020600020905b815481529060010190602001808311610bd757829003601f168201915b50505050508152602001600382018054610c0d90611baf565b80601f0160208091040260200160405190810160405280929190818152602001828054610c3990611baf565b8015610c865780601f10610c5b57610100808354040283529160200191610c86565b820191906000526020600020905b815481529060010190602001808311610c6957829003601f168201915b50505050508152602001600482018054610c9f90611baf565b80601f0160208091040260200160405190810160405280929190818152602001828054610ccb90611baf565b8015610d185780601f10610ced57610100808354040283529160200191610d18565b820191906000526020600020905b815481529060010190602001808311610cfb57829003601f168201915b50505050508152505081526020019060010190610a24565b50505050905090565b60008060008373ffffffffffffffffffffffffffffffffffffffff1673ffffffffffffffffffffffffffffffffffffffff16815260200190815260200160002060009054906101000a900460ff169050919050565b610d9661110f565b60016000610da384611041565b73ffffffffffffffffffffffffffffffffffffffff1673ffffffffffffffffffffffffffffffffffffffff1681526020019081526020016000206040518060a0016040529081600082018054610df890611baf565b80601f0160208091040260200160405190810160405280929190818152602001828054610e2490611baf565b8015610e715780601f10610e4657610100808354040283529160200191610e71565b820191906000526020600020905b815481529060010190602001808311610e5457829003601f168201915b50505050508152602001600182018054610e8a90611baf565b80601f0160208091040260200160405190810160405280929190818152602001828054610eb690611baf565b8015610f035780601f10610ed857610100808354040283529160200191610f03565b820191906000526020600020905b815481529060010190602001808311610ee657829003601f168201915b50505050508152602001600282018054610f1c90611baf565b80601f0160208091040260200160405190810160405280929190818152602001828054610f4890611baf565b8015610f955780601f10610f6a57610100808354040283529160200191610f95565b820191906000526020600020905b815481529060010190602001808311610f7857829003601f168201915b5050505050815260200160038201548152602001600482018054610fb890611baf565b80601f0160208091040260200160405190810160405280929190818152602001828054610fe490611baf565b80156110315780601f1061100657610100808354040283529160200191611031565b820191906000526020600020905b81548152906001019060200180831161101457829003601f168201915b5050505050815250509050919050565b60006003826040516110539190611a5f565b908152602001604051809103902060009054906101000a900473ffffffffffffffffffffffffffffffffffffffff169050919050565b82805461109590611baf565b90600052602060002090601f0160209004810192826110b757600085556110fe565b82601f106110d057805160ff19168380011785556110fe565b828001600101855582156110fe579182015b828111156110fd5782518255916020019190600101906110e2565b5b50905061110b919061113e565b5090565b6040518060a0016040528060608152602001606081526020016060815260200160008152602001606081525090565b5b8082111561115757600081600090555060010161113f565b5090565b6000604051905090565b600080fd5b600080fd5b600080fd5b6000601f19601f8301169050919050565b7f4e487b7100000000000000000000000000000000000000000000000000000000600052604160045260246000fd5b6111bd82611174565b810181811067ffffffffffffffff821117156111dc576111db611185565b5b80604052505050565b60006111ef61115b565b90506111fb82826111b4565b919050565b600067ffffffffffffffff82111561121b5761121a611185565b5b602082029050602081019050919050565b600080fd5b600080fd5b600067ffffffffffffffff82111561125157611250611185565b5b61125a82611174565b9050602081019050919050565b82818337600083830152505050565b600061128961128484611236565b6111e5565b9050828152602081018484840111156112a5576112a4611231565b5b6112b0848285611267565b509392505050565b600082601f8301126112cd576112cc61116f565b5b81356112dd848260208601611276565b91505092915050565b60006112f96112f484611200565b6111e5565b9050808382526020820190506020840283018581111561131c5761131b61122c565b5b835b8181101561136357803567ffffffffffffffff8111156113415761134061116f565b5b80860161134e89826112b8565b8552602085019450505060208101905061131e565b5050509392505050565b600082601f8301126113825761138161116f565b5b81356113928482602086016112e6565b91505092915050565b6000819050919050565b6113ae8161139b565b81146113b957600080fd5b50565b6000813590506113cb816113a5565b92915050565b600067ffffffffffffffff8211156113ec576113eb611185565b5b602082029050602081019050919050565b600061141061140b846113d1565b6111e5565b905080838252602082019050602084028301858111156114335761143261122c565b5b835b8181101561147a57803567ffffffffffffffff8111156114585761145761116f565b5b808601611465898261136d565b85526020850194505050602081019050611435565b5050509392505050565b600082601f8301126114995761149861116f565b5b81356114a98482602086016113fd565b91505092915050565b6000806000606084860312156114cb576114ca611165565b5b600084013567ffffffffffffffff8111156114e9576114e861116a565b5b6114f58682870161136d565b9350506020611506868287016113bc565b925050604084013567ffffffffffffffff8111156115275761152661116a565b5b61153386828701611484565b9150509250925092565b600081519050919050565b600082825260208201905092915050565b60005b8381101561157757808201518184015260208101905061155c565b83811115611586576000848401525b50505050565b60006115978261153d565b6115a18185611548565b93506115b1818560208601611559565b6115ba81611174565b840191505092915050565b6115ce8161139b565b82525050565b600060a08301600083015184820360008601526115f1828261158c565b9150506020830151848203602086015261160b828261158c565b91505060408301518482036040860152611625828261158c565b915050606083015161163a60608601826115c5565b5060808301518482036080860152611652828261158c565b9150508091505092915050565b6000602082019050818103600083015261167981846115d4565b905092915050565b600081519050919050565b600082825260208201905092915050565b6000819050602082019050919050565b600060a08301600083015184820360008601526116ca828261158c565b915050602083015184820360208601526116e4828261158c565b915050604083015184820360408601526116fe828261158c565b91505060608301518482036060860152611718828261158c565b91505060808301518482036080860152611732828261158c565b9150508091505092915050565b600061174b83836116ad565b905092915050565b6000602082019050919050565b600061176b82611681565b611775818561168c565b9350836020820285016117878561169d565b8060005b858110156117c357848403895281516117a4858261173f565b94506117af83611753565b925060208a0199505060018101905061178b565b50829750879550505050505092915050565b600060208201905081810360008301526117ef8184611760565b905092915050565b600073ffffffffffffffffffffffffffffffffffffffff82169050919050565b6000611822826117f7565b9050919050565b61183281611817565b811461183d57600080fd5b50565b60008135905061184f81611829565b92915050565b60006020828403121561186b5761186a611165565b5b600061187984828501611840565b91505092915050565b60008115159050919050565b61189781611882565b82525050565b60006020820190506118b2600083018461188e565b92915050565b6000602082840312156118ce576118cd611165565b5b600082013567ffffffffffffffff8111156118ec576118eb61116a565b5b6118f8848285016112b8565b91505092915050565b61190a81611817565b82525050565b60006020820190506119256000830184611901565b92915050565b600082825260208201905092915050565b7f557365722068617320616e206163746976652073747265616d2e20506c65617360008201527f652066657463682073747265616d496420616e6420637265617465206120736560208201527f7373696f6e000000000000000000000000000000000000000000000000000000604082015250565b60006119be60458361192b565b91506119c98261193c565b606082019050919050565b600060208201905081810360008301526119ed816119b1565b9050919050565b7f4e487b7100000000000000000000000000000000000000000000000000000000600052603260045260246000fd5b600081905092915050565b6000611a398261153d565b611a438185611a23565b9350611a53818560208601611559565b80840191505092915050565b6000611a6b8284611a2e565b915081905092915050565b7f4e487b7100000000000000000000000000000000000000000000000000000000600052601160045260246000fd5b6000611ab08261139b565b91507fffffffffffffffffffffffffffffffffffffffffffffffffffffffffffffffff821415611ae357611ae2611a76565b5b600182019050919050565b7f5573657220686173206e6f74207965742063726561746564206120737472656160008201527f6d00000000000000000000000000000000000000000000000000000000000000602082015250565b6000611b4a60218361192b565b9150611b5582611aee565b604082019050919050565b60006020820190508181036000830152611b7981611b3d565b9050919050565b7f4e487b7100000000000000000000000000000000000000000000000000000000600052602260045260246000fd5b60006002820490506001821680611bc757607f821691505b60208210811415611bdb57611bda611b80565b5b5091905056fea2646970667358221220ad36bd47e576c4d2a64277464066a1471bdef781ebfd487baf5fa91943027d3264736f6c634300080b0033",
  "immutableReferences": {},
  "source": "//SPDX-License-Identifier: MIT OR Apache-2.0\npragma solidity ^0.8.9;\ncontract AstterLive{\n\n    struct Profile{\n        string name;\n        string bitrate;\n        string fps;\n        string width;\n        string height;\n    }\n\n    struct Stream {\n        string streamName;\n        string streamId;\n        string description;\n        uint category;\n        string thumbnail;\n    }\n\n    mapping(address => bool) streamCreated;\n    mapping(address => Stream) userStream;\n    mapping(address => Profile[]) userProfiles;\n    mapping(string => address) streamIdToUser;\n\n    address owner;\n\n    modifier onlyOwner {\n        require(msg.sender == owner, \"Only owner can access this function\");\n        _;\n    }\n\n    function hasStream(address user) public view returns(bool) {\n        return streamCreated[user];\n    }\n\n    event StreamCreated(address indexed user, string indexed streamName);\n\n    function createStream(string[] memory streamData, uint category, string[][] memory profiles) external{\n        require(!hasStream(msg.sender), \"User has an active stream. Please fetch streamId and create a session\");\n        userStream[msg.sender] = Stream(streamData[0], streamData[1], streamData[2], category, streamData[3]);\n        streamIdToUser[streamData[1]] = msg.sender;\n\n        Profile[] storage prof = userProfiles[msg.sender];\n        for(uint i = 0; i<profiles.length; i++) {\n            Profile memory p = Profile(profiles[i][0], profiles[i][1], profiles[i][2], profiles[i][3], profiles[i][4]);\n            prof.push(p);\n        }\n\n        streamCreated[msg.sender] = true;\n\n        emit StreamCreated(msg.sender, streamData[0]);\n    }\n\n    function getStreamer(string memory streamId) public  view returns(address) {\n        return streamIdToUser[streamId];\n    }\n\n    function getStream(string memory streamId) public view returns(Stream memory) {\n        return userStream[getStreamer(streamId)];\n    }\n\n    function getStreamforUser() external view returns(Stream memory) {\n        require(hasStream(msg.sender), \"User has not yet created a stream\");\n        return userStream[msg.sender];\n    }\n\n    function getProfilesforUser() external view returns (Profile[] memory) {\n        require(hasStream(msg.sender), \"User has not yet created a stream\");\n        return userProfiles[msg.sender];\n    }\n\n}",
  "sourcePath": "D:\\github\\Astter-Live\\contracts\\AstterLive.sol",
  "compiler": {
    "name": "solc",
    "version": "0.8.11+commit.d7f03943.Emscripten.clang"
  },
  "schemaVersion": "3.4.4",
  "updatedAt": "2022-09-25T14:37:31.190Z",
  "devdoc": {
    "kind": "dev",
    "methods": {},
    "version": 1
  },
  "userdoc": {
    "kind": "user",
    "methods": {},
    "version": 1
  }
}