{
  "contractName": "AstterLive",
  "abi": [
    {
      "anonymous": false,
      "inputs": [
        {
          "indexed": true,
          "internalType": "address",
          "name": "user",
          "type": "address"
        },
        {
          "indexed": true,
          "internalType": "string",
          "name": "streamName",
          "type": "string"
        }
      ],
      "name": "StreamCreated",
      "type": "event"
    },
    {
      "inputs": [
        {
          "internalType": "address",
          "name": "user",
          "type": "address"
        }
      ],
      "name": "hasStream",
      "outputs": [
        {
          "internalType": "bool",
          "name": "",
          "type": "bool"
        }
      ],
      "stateMutability": "view",
      "type": "function"
    },
    {
      "inputs": [
        {
          "internalType": "string[]",
          "name": "streamData",
          "type": "string[]"
        },
        {
          "internalType": "string[][]",
          "name": "profiles",
          "type": "string[][]"
        }
      ],
      "name": "createStream",
      "outputs": [],
      "stateMutability": "nonpayable",
      "type": "function"
    },
    {
      "inputs": [],
      "name": "getStreamforUser",
      "outputs": [
        {
          "components": [
            {
              "internalType": "string",
              "name": "streamName",
              "type": "string"
            },
            {
              "internalType": "string",
              "name": "streamId",
              "type": "string"
            }
          ],
          "internalType": "struct AstterLive.Stream",
          "name": "",
          "type": "tuple"
        }
      ],
      "stateMutability": "view",
      "type": "function"
    },
    {
      "inputs": [],
      "name": "getProfilesforUser",
      "outputs": [
        {
          "components": [
            {
              "internalType": "string",
              "name": "name",
              "type": "string"
            },
            {
              "internalType": "string",
              "name": "bitrate",
              "type": "string"
            },
            {
              "internalType": "string",
              "name": "fps",
              "type": "string"
            },
            {
              "internalType": "string",
              "name": "width",
              "type": "string"
            },
            {
              "internalType": "string",
              "name": "height",
              "type": "string"
            }
          ],
          "internalType": "struct AstterLive.Profile[]",
          "name": "",
          "type": "tuple[]"
        }
      ],
      "stateMutability": "view",
      "type": "function"
    }
  ],
  "bytecode": "0x608060405234801561001057600080fd5b50611556806100206000396000f3fe608060405234801561001057600080fd5b506004361061004c5760003560e01c806345e1191d14610051578063498ee9811461006f57806359dda57c1461008d578063cf0dc39b146100bd575b600080fd5b6100596100d9565b6040516100669190610c7f565b60405180910390f35b61007761029c565b6040516100849190610df5565b60405180910390f35b6100a760048036038101906100a29190610e89565b61065a565b6040516100b49190610ed1565b60405180910390f35b6100d760048036038101906100d291906111e8565b6106af565b005b6100e1610ae5565b6100ea3361065a565b610129576040517f08c379a0000000000000000000000000000000000000000000000000000000008152600401610120906112e3565b60405180910390fd5b600160003373ffffffffffffffffffffffffffffffffffffffff1673ffffffffffffffffffffffffffffffffffffffff16815260200190815260200160002060405180604001604052908160008201805461018390611332565b80601f01602080910402602001604051908101604052809291908181526020018280546101af90611332565b80156101fc5780601f106101d1576101008083540402835291602001916101fc565b820191906000526020600020905b8154815290600101906020018083116101df57829003601f168201915b5050505050815260200160018201805461021590611332565b80601f016020809104026020016040519081016040528092919081815260200182805461024190611332565b801561028e5780601f106102635761010080835404028352916020019161028e565b820191906000526020600020905b81548152906001019060200180831161027157829003601f168201915b505050505081525050905090565b60606102a73361065a565b6102e6576040517f08c379a00000000000000000000000000000000000000000000000000000000081526004016102dd906112e3565b60405180910390fd5b600260003373ffffffffffffffffffffffffffffffffffffffff1673ffffffffffffffffffffffffffffffffffffffff168152602001908152602001600020805480602002602001604051908101604052809291908181526020016000905b8282101561065157838290600052602060002090600502016040518060a001604052908160008201805461037890611332565b80601f01602080910402602001604051908101604052809291908181526020018280546103a490611332565b80156103f15780601f106103c6576101008083540402835291602001916103f1565b820191906000526020600020905b8154815290600101906020018083116103d457829003601f168201915b5050505050815260200160018201805461040a90611332565b80601f016020809104026020016040519081016040528092919081815260200182805461043690611332565b80156104835780601f1061045857610100808354040283529160200191610483565b820191906000526020600020905b81548152906001019060200180831161046657829003601f168201915b5050505050815260200160028201805461049c90611332565b80601f01602080910402602001604051908101604052809291908181526020018280546104c890611332565b80156105155780601f106104ea57610100808354040283529160200191610515565b820191906000526020600020905b8154815290600101906020018083116104f857829003601f168201915b5050505050815260200160038201805461052e90611332565b80601f016020809104026020016040519081016040528092919081815260200182805461055a90611332565b80156105a75780601f1061057c576101008083540402835291602001916105a7565b820191906000526020600020905b81548152906001019060200180831161058a57829003601f168201915b505050505081526020016004820180546105c090611332565b80601f01602080910402602001604051908101604052809291908181526020018280546105ec90611332565b80156106395780601f1061060e57610100808354040283529160200191610639565b820191906000526020600020905b81548152906001019060200180831161061c57829003601f168201915b50505050508152505081526020019060010190610345565b50505050905090565b60008060008373ffffffffffffffffffffffffffffffffffffffff1673ffffffffffffffffffffffffffffffffffffffff16815260200190815260200160002060009054906101000a900460ff169050919050565b6106b83361065a565b156106f8576040517f08c379a00000000000000000000000000000000000000000000000000000000081526004016106ef906113fc565b60405180910390fd5b6040518060400160405280836000815181106107175761071661141c565b5b60200260200101518152602001836001815181106107385761073761141c565b5b6020026020010151815250600160003373ffffffffffffffffffffffffffffffffffffffff1673ffffffffffffffffffffffffffffffffffffffff168152602001908152602001600020600082015181600001908051906020019061079e929190610aff565b5060208201518160010190805190602001906107bb929190610aff565b509050506000600260003373ffffffffffffffffffffffffffffffffffffffff1673ffffffffffffffffffffffffffffffffffffffff168152602001908152602001600020905060005b8251811015610a145760006040518060a0016040528085848151811061082e5761082d61141c565b5b60200260200101516000815181106108495761084861141c565b5b602002602001015181526020018584815181106108695761086861141c565b5b60200260200101516001815181106108845761088361141c565b5b602002602001015181526020018584815181106108a4576108a361141c565b5b60200260200101516002815181106108bf576108be61141c565b5b602002602001015181526020018584815181106108df576108de61141c565b5b60200260200101516003815181106108fa576108f961141c565b5b6020026020010151815260200185848151811061091a5761091961141c565b5b60200260200101516004815181106109355761093461141c565b5b60200260200101518152509050828190806001815401808255809150506001900390600052602060002090600502016000909190919091506000820151816000019080519060200190610989929190610aff565b5060208201518160010190805190602001906109a6929190610aff565b5060408201518160020190805190602001906109c3929190610aff565b5060608201518160030190805190602001906109e0929190610aff565b5060808201518160040190805190602001906109fd929190610aff565b505050508080610a0c90611484565b915050610805565b5060016000803373ffffffffffffffffffffffffffffffffffffffff1673ffffffffffffffffffffffffffffffffffffffff16815260200190815260200160002060006101000a81548160ff02191690831515021790555082600081518110610a8057610a7f61141c565b5b6020026020010151604051610a959190611509565b60405180910390203373ffffffffffffffffffffffffffffffffffffffff167faad763e029490bc6f707c8985ebbddcc804136cdc9f2d51c64e39b12eea76d2160405160405180910390a3505050565b604051806040016040528060608152602001606081525090565b828054610b0b90611332565b90600052602060002090601f016020900481019282610b2d5760008555610b74565b82601f10610b4657805160ff1916838001178555610b74565b82800160010185558215610b74579182015b82811115610b73578251825591602001919060010190610b58565b5b509050610b819190610b85565b5090565b5b80821115610b9e576000816000905550600101610b86565b5090565b600081519050919050565b600082825260208201905092915050565b60005b83811015610bdc578082015181840152602081019050610bc1565b83811115610beb576000848401525b50505050565b6000601f19601f8301169050919050565b6000610c0d82610ba2565b610c178185610bad565b9350610c27818560208601610bbe565b610c3081610bf1565b840191505092915050565b60006040830160008301518482036000860152610c588282610c02565b91505060208301518482036020860152610c728282610c02565b9150508091505092915050565b60006020820190508181036000830152610c998184610c3b565b905092915050565b600081519050919050565b600082825260208201905092915050565b6000819050602082019050919050565b600060a0830160008301518482036000860152610cea8282610c02565b91505060208301518482036020860152610d048282610c02565b91505060408301518482036040860152610d1e8282610c02565b91505060608301518482036060860152610d388282610c02565b91505060808301518482036080860152610d528282610c02565b9150508091505092915050565b6000610d6b8383610ccd565b905092915050565b6000602082019050919050565b6000610d8b82610ca1565b610d958185610cac565b935083602082028501610da785610cbd565b8060005b85811015610de35784840389528151610dc48582610d5f565b9450610dcf83610d73565b925060208a01995050600181019050610dab565b50829750879550505050505092915050565b60006020820190508181036000830152610e0f8184610d80565b905092915050565b6000604051905090565b600080fd5b600080fd5b600073ffffffffffffffffffffffffffffffffffffffff82169050919050565b6000610e5682610e2b565b9050919050565b610e6681610e4b565b8114610e7157600080fd5b50565b600081359050610e8381610e5d565b92915050565b600060208284031215610e9f57610e9e610e21565b5b6000610ead84828501610e74565b91505092915050565b60008115159050919050565b610ecb81610eb6565b82525050565b6000602082019050610ee66000830184610ec2565b92915050565b600080fd5b7f4e487b7100000000000000000000000000000000000000000000000000000000600052604160045260246000fd5b610f2982610bf1565b810181811067ffffffffffffffff82111715610f4857610f47610ef1565b5b80604052505050565b6000610f5b610e17565b9050610f678282610f20565b919050565b600067ffffffffffffffff821115610f8757610f86610ef1565b5b602082029050602081019050919050565b600080fd5b600080fd5b600067ffffffffffffffff821115610fbd57610fbc610ef1565b5b610fc682610bf1565b9050602081019050919050565b82818337600083830152505050565b6000610ff5610ff084610fa2565b610f51565b90508281526020810184848401111561101157611010610f9d565b5b61101c848285610fd3565b509392505050565b600082601f83011261103957611038610eec565b5b8135611049848260208601610fe2565b91505092915050565b600061106561106084610f6c565b610f51565b9050808382526020820190506020840283018581111561108857611087610f98565b5b835b818110156110cf57803567ffffffffffffffff8111156110ad576110ac610eec565b5b8086016110ba8982611024565b8552602085019450505060208101905061108a565b5050509392505050565b600082601f8301126110ee576110ed610eec565b5b81356110fe848260208601611052565b91505092915050565b600067ffffffffffffffff82111561112257611121610ef1565b5b602082029050602081019050919050565b600061114661114184611107565b610f51565b9050808382526020820190506020840283018581111561116957611168610f98565b5b835b818110156111b057803567ffffffffffffffff81111561118e5761118d610eec565b5b80860161119b89826110d9565b8552602085019450505060208101905061116b565b5050509392505050565b600082601f8301126111cf576111ce610eec565b5b81356111df848260208601611133565b91505092915050565b600080604083850312156111ff576111fe610e21565b5b600083013567ffffffffffffffff81111561121d5761121c610e26565b5b611229858286016110d9565b925050602083013567ffffffffffffffff81111561124a57611249610e26565b5b611256858286016111ba565b9150509250929050565b600082825260208201905092915050565b7f5573657220686173206e6f74207965742063726561746564206120737472656160008201527f6d00000000000000000000000000000000000000000000000000000000000000602082015250565b60006112cd602183611260565b91506112d882611271565b604082019050919050565b600060208201905081810360008301526112fc816112c0565b9050919050565b7f4e487b7100000000000000000000000000000000000000000000000000000000600052602260045260246000fd5b6000600282049050600182168061134a57607f821691505b6020821081141561135e5761135d611303565b5b50919050565b7f557365722068617320616e206163746976652073747265616d2e20506c65617360008201527f652066657463682073747265616d496420616e6420637265617465206120736560208201527f7373696f6e000000000000000000000000000000000000000000000000000000604082015250565b60006113e6604583611260565b91506113f182611364565b606082019050919050565b60006020820190508181036000830152611415816113d9565b9050919050565b7f4e487b7100000000000000000000000000000000000000000000000000000000600052603260045260246000fd5b7f4e487b7100000000000000000000000000000000000000000000000000000000600052601160045260246000fd5b6000819050919050565b600061148f8261147a565b91507fffffffffffffffffffffffffffffffffffffffffffffffffffffffffffffffff8214156114c2576114c161144b565b5b600182019050919050565b600081905092915050565b60006114e382610ba2565b6114ed81856114cd565b93506114fd818560208601610bbe565b80840191505092915050565b600061151582846114d8565b91508190509291505056fea2646970667358221220c7fdcfe929086e0ed1af00ab7e0648f14447e1c2e31ec2903cc4705920e3458b64736f6c634300080b0033",
  "immutableReferences": {},
  "source": "//SPDX-License-Identifier: MIT OR Apache-2.0\npragma solidity ^0.8.9;\ncontract AstterLive{\n\n    struct Profile{\n        string name;\n        string bitrate;\n        string fps;\n        string width;\n        string height;\n    }\n\n    struct Stream {\n        string streamName;\n        string streamId;\n    }\n\n    mapping(address => bool) streamCreated;\n    mapping(address => Stream) userStream;\n    mapping(address => Profile[]) userProfiles;\n\n    address owner;\n\n    modifier onlyOwner {\n        require(msg.sender == owner, \"Only owner can access this function\");\n        _;\n    }\n\n    function hasStream(address user) public view returns(bool) {\n        return streamCreated[user];\n    }\n\n    event StreamCreated(address indexed user, string indexed streamName);\n\n    function createStream(string[] memory streamData, string[][] memory profiles) external{\n        require(!hasStream(msg.sender), \"User has an active stream. Please fetch streamId and create a session\");\n        userStream[msg.sender] = Stream(streamData[0], streamData[1]);\n\n        Profile[] storage prof = userProfiles[msg.sender];\n        for(uint i = 0; i<profiles.length; i++) {\n            Profile memory p = Profile(profiles[i][0], profiles[i][1], profiles[i][2], profiles[i][3], profiles[i][4]);\n            prof.push(p);\n        }\n\n        streamCreated[msg.sender] = true;\n\n        emit StreamCreated(msg.sender, streamData[0]);\n    }\n\n    function getStreamforUser() external view returns(Stream memory) {\n        require(hasStream(msg.sender), \"User has not yet created a stream\");\n        return userStream[msg.sender];\n    }\n\n    function getProfilesforUser() external view returns (Profile[] memory) {\n        require(hasStream(msg.sender), \"User has not yet created a stream\");\n        return userProfiles[msg.sender];\n    }\n\n}",
  "sourcePath": "D:\\github\\Astter-Live\\contracts\\AstterLive.sol",
  "compiler": {
    "name": "solc",
    "version": "0.8.11+commit.d7f03943.Emscripten.clang"
  },
  "schemaVersion": "3.4.4",
  "updatedAt": "2022-09-24T05:32:10.833Z",
  "devdoc": {
    "kind": "dev",
    "methods": {},
    "version": 1
  },
  "userdoc": {
    "kind": "user",
    "methods": {},
    "version": 1
  }
}